:100000000C9472000C9486000C9486000C9486006C
:100010000C9486000C9486000C9486000C94860048
:100020000C9486000C9486000C9486000C94860038
:100030000C9486000C9486000C9486000C94860028
:100040000C9486000C9488000C9486000C94860016
:100050000C9486000C9486000C9486000C94860008
:100060000C9486000C94CB000C9486000C948600B3
:100070000C9486000C9486000C9486000C948600E8
:100080000C9497000C9486000C9486000C948600C7
:100090000C9486000C9486000C9486000C948600C8
:1000A0000C9486000C9486000C9486000C948600B8
:1000B0000C9486000C9486000C9486000C94B1007D
:1000C0000C9486000C9486000C9486000C94860098
:1000D0000C9486000C9486000C9486000C94860088
:1000E0000C94860011241FBECFEFD1E2DEBFCDBF3E
:1000F00000E00CBF22E0A0E0B2E001C01D92AC30F5
:10010000B207E1F70E9494030C94C2070C9400001C
:100110001F920F920FB60F9211248F9381E080935C
:1001200005028F910F900FBE0F901F9018951F9290
:100130000F920FB60F9211248F939F9381E08093BB
:10014000080280910602909107020196909307029F
:10015000809306029F918F910F900FBE0F901F907A
:1001600018951F920F920FB60F9211248F939F93A1
:1001700081E0809309028091060290910702019626
:1001800090930702809306029F918F910F900FBE6C
:100190000F901F9018951F920F920FB60F92112477
:1001A0008F9381E080930A028091C60080930B02B6
:1001B0008F910F900FBE0F901F9018951092800096
:1001C0008BE0809381008FE090E090938900809392
:1001D0008800EFE6F0E080818260808308951092CD
:1001E00020019DE090932101682F70E080E090E075
:1001F0000E94A00620E034E244E756E40E9455073E
:100200000E946F067093290160932801F894E3E738
:10021000F0E080818260808378940895109290004D
:100220008DE08093910089E09DE390939900809305
:100230009800F894E1E7F0E0808182608083789410
:1002400008956F927F928F929F92AF92BF92CF92BA
:10025000DF92EF92FF920F931F93CF93DF9300D023
:1002600000D0CDB7DEB749835A836B837C838D83FF
:100270009E83350180910402D90196E0899FA00DEB
:10028000B11D112486E0FE01319601900D928A95F0
:10029000E1F7809104028F5F809304028091040251
:1002A0008C3309F4BAC0809103028C3309F480C006
:1002B00080910202883109F447C0809101028E3199
:1002C000A9F026960FB6F894DEBF0FBECDBFDF9122
:1002D000CF911F910F91FF90EF90DF90CF90BF9043
:1002E000AF909F908F907F906F90089586010C54EF
:1002F0001F4F60E070E0CB01F60120813181428127
:1003000053810E948C05F6E0CF0ED11C0C151D0503
:1003100099F700910602109107022091000236E041
:10032000239F600C711C112420E030E040EF51E469
:100330000E94FD05F301608371838283938315839B
:10034000048310920102BDCF870100571F4F60E068
:1003500070E0CB01F70120813181428153810E94FD
:100360008C05F6E0EF0EF11CE016F10699F7E0902F
:100370000602F090070220910102860136E0239FD9
:10038000000D111D112420E030E040EC51E40E94EA
:10039000FD05F8016083718382839383F582E48293
:1003A000809101028F5F809301021092020285CF3B
:1003B0005801F8E9AF1AFEEFBF0A60E070E0CB0128
:1003C000F80120813181428153810E948C050A5FAE
:1003D0001F4F0A151B05A1F7A0900602B090070257
:1003E000209102028701F6E02F9F000D111D1124BC
:1003F00020E030E040E752E40E94FD05F801608310
:10040000718382839383B582A482809102028F5F7D
:1004100080930202109203024BCF59014901E8E98F
:100420008E1AEEEF9E0A60E070E0CB01F5012081AC
:100430003181428153810E948C05F6E0AF0EB11CE0
:10044000A814B90499F7A0900602B0900702209171
:100450000302480136E0239F800C911C112420E008
:1004600030E040E752E40E94FD05F40160837183AF
:1004700082839383B582A482809103028F5F8093ED
:100480000302109204020FCF1092C50083E3809301
:10049000C40086E08093C20088E98093C10008957B
:1004A0009091C00095FFFCCF8093C6000895809185
:1004B000C00087FFFCCF8091C6000895FC01909199
:1004C000C00097FFFCCF9091C6009193992329F02B
:1004D0009A3011F09D3099F711929E2F981B892F19
:1004E0000895FC012081222351F031969091C000A3
:1004F00095FFFCCF2093C60021912111F7CF0895DD
:100500000F931F93CF93DF93EC018C010A5F1F4F72
:1005100089910E945002C017D107D1F7DF91CF9186
:100520001F910F910895ECE7F0E080818064808353
:1005300080818F778083EAE7F0E080818760808325
:10054000808180688083089580917C00887F80937B
:100550007C0080917A00806480937A0080917A0098
:1005600086FDFCCF609178007091790080E090E08A
:100570000E949E060895CF92DF92EF92FF926B0148
:100580007C01CA01B901A70196010E948B0520E0F8
:1005900030E040EA50E40E94550720E030E040E8B7
:1005A0005AE30E94550724EF3DEF44E35FE30E94C6
:1005B000550729E134E046E15FE30E94550721E851
:1005C00036E242EC5CE30E948C056B017C012FE873
:1005D00032EC45EF5CE30E94F80587FF03C0C12CB5
:1005E000D12C7601C701B601FF90EF90DF90CF903C
:1005F00008956F927F928F929F92AF92BF92CF9207
:10060000DF92EF92FF920F931F93CF93DF933B0103
:100610004A015901EC016C0188E9C81A8EEFD80A29
:100620007E0196E0E90EF11C89910E945002CE15E0
:10063000DF05D1F78FE19EE40197F1F700C00000DC
:10064000CC15DD0569F7E301630198E9C91A9EEF4E
:10065000D90A7E0186E0E80EF11C89910E945002C1
:10066000CE15DF05D1F78FE19EE40197F1F700C0C9
:100670000000CC15DD0569F7E401640190E9C90EBD
:10068000D11C7E0186E0E80EF11C89910E94500287
:10069000CE15DF05D1F78FE19EE40197F1F700C099
:1006A0000000CC15DD0569F7E501650194EBC90E85
:1006B000D11C7E0186E0E80EF11C89910E94500257
:1006C000CE15DF05D1F78FE19EE40197F1F700C069
:1006D0000000CC15DD0569F7E801680198E4C90E52
:1006E000D11C7E0186E0E80EF11C89910E94500227
:1006F000EC16FD06D1F78FE19EE40197F1F700C0FB
:100700000000E701EC14FD0461F7DF91CF911F9128
:100710000F91FF90EF90DF90CF90BF90AF909F90A0
:100720008F907F906F900895CF93DF93CDB7DEB712
:10073000C856D4400FB6F894DEBF0FBECDBF0E949E
:1007400044020E949302109280008BE0809381000B
:100750008FE090E0909389008093880080916F00F3
:10076000826080936F007894279A9E0127593E4FAC
:10077000CD59DB4F39832883C356D44088E691E0B6
:10078000D901FC011D923197E9F728563140CB5928
:10079000DB4F39832883C556D440D901FC011D9213
:1007A0003197E9F74E01FBE78F1AFCEF9F0A80E9CA
:1007B000D4011D928A95E9F7FE01EF52FD4FC95908
:1007C000DB4FF983E883C756D44084EB11928A95B6
:1007D000E9F73E01FBEE6F1AFBEF7F0A88E4D301D5
:1007E0001D928A95E9F780910A02882309F45CC07A
:1007F00010920A02809171008D7F80937100809128
:100800009100887F8093910080910B02813709F4D9
:10081000EBC080910B02833609F0F4C0CD59DB4F59
:10082000E881F981C356D44028E631E01192215085
:100830003040E1F7CB59DB4FA881B981C556D44090
:10084000E8E6F1E01D923197E9F7D401E0E91D9265
:10085000EA95E9F7C959DB4FA881B981C756D44059
:10086000E4EB1D92EA95E9F7D301E8E41D92EA95DD
:10087000E9F780E090E0A0E8BFEBC35ADB4F888344
:100880009983AA83BB83CD55D440CF59DB4F1982BE
:100890001882C156D440CE01835A9B4F0E948002D9
:1008A00080910A028111A4CF109290009DE0909354
:1008B0009100A9E0BDE3B0939900A0939800F8944B
:1008C00080917100826080937100789480910A0217
:1008D000811189CFE12CF12C00E010E0A12CB12C8A
:1008E000C12CD12C09C080910802811130C088959B
:1008F00080910A02811177CF80910502882399F3B4
:100900000E94A4021B012C019501A6010E94500720
:10091000181614F4510162019701A801B101C20136
:100920000E94F80587FD0BC020E030E0A901B70167
:10093000C8010E94F805882311F0170128011092C0
:1009400005027101820180910802882381F29501DC
:10095000A601B701C8010E94BB02C35ADB4F6883DE
:1009600079838A839B83CD55D440809106029091F0
:100970000702CF59DB4F99838883C156D440530176
:10098000FE01EF52FD4F6F0174018E010F5F1F4F8B
:100990009E0127593E4FC35ADB4F4881CD55D44065
:1009A000C25ADB4F5881CE55D440C15ADB4F6881C3
:1009B000CF55D440C05ADB4F7881C056D440CE5971
:1009C000DB4F9881C256D4400E9421011092080248
:1009D00085B1805885B9E12CF12C00E010E0A12C04
:1009E000B12CC12CD12C83CF83019E012F523D4FBE
:1009F000A401BE016F5F7F4FCE0187599E4F0E94B9
:100A0000F902F1CE60910B02109220018DE08093EB
:100A1000210170E080E090E00E94A00620E034E236
:100A200044E756E40E9455070E946F06709329011F
:100A300060932801F8948091730082608093730022
:100A40007894E12CF12C00E010E0A12CB12CC12C09
:100A5000D12C05C08091090281112EC0889580910A
:100A600005028823B9F30E94A4023B014C019B01BB
:100A7000AC01B501C6010E94F80587FF02C0530111
:100A800064019301A401B701C8010E945007181620
:100A90005CF020E030E0A901B701C8010E94F80530
:100AA000882311F037014801109205027301840177
:100AB00080910902882391F29501A601B701C8012E
:100AC0000E94BB02C35ADB4F688379838A839B836E
:100AD000CD55D44040910B0220910602309107027F
:100AE000429FC001439F900D1124CF59DB4F998342
:100AF0008883C156D440CE01835A9B4F0E94800206
:100B000010920902E12CF12C00E010E0A12CB12C94
:100B1000C12CD12CA3CF5058BB27AA270E94A305D4
:100B20000C9416070E94080738F00E940F0720F067
:100B300039F49F3F19F426F40C9405070EF4E09560
:100B4000E7FB0C94FF06E92F0E94270758F3BA171A
:100B5000620773078407950720F079F4A6F50C94D3
:100B600049070EF4E0950B2EBA2FA02D0B01B90109
:100B700090010C01CA01A0011124FF27591B99F013
:100B8000593F50F4503E68F11A16F040A22F232F1F
:100B9000342F4427585FF3CF469537952795A7956F
:100BA000F0405395C9F77EF41F16BA0B620B730B16
:100BB000840BBAF09150A1F0FF0FBB1F661F771F87
:100BC000881FC2F70EC0BA0F621F731F841F48F43C
:100BD000879577956795B795F7959E3F08F0B0CFC5
:100BE0009395880F08F09927EE0F979587950895AC
:100BF0000E94DB0608F481E008950E9411060C941F
:100C000016070E940F0758F00E94080740F029F4C9
:100C10005F3F29F00C94FF0651110C944A070C9485
:100C200005070E94270768F39923B1F3552391F331
:100C3000951B550BBB27AA2762177307840738F04B
:100C40009F5F5F4F220F331F441FAA1FA9F335D0A8
:100C50000E2E3AF0E0E832D091505040E695001C5C
:100C6000CAF72BD0FE2F29D0660F771F881FBB1F16
:100C7000261737074807AB07B0E809F0BB0B802DF4
:100C8000BF01FF2793585F4F3AF09E3F510578F020
:100C90000C94FF060C944A075F3FE4F3983ED4F3AC
:100CA000869577956795B795F7959F5FC9F7880FF4
:100CB000911D9695879597F90895E1E0660F771F46
:100CC000881FBB1F621773078407BA0720F0621BD7
:100CD000730B840BBA0BEE1F88F7E09508950E9402
:100CE0002F0788F09F5798F0B92F9927B751B0F088
:100CF000E1F0660F771F881F991F1AF0BA95C9F7A0
:100D000014C0B13091F00E944907B1E008950C94ED
:100D10004907672F782F8827B85F39F0B93FCCF3A0
:100D2000869577956795B395D9F73EF4909580951C
:100D3000709561957F4F8F4F9F4F0895E89409C03C
:100D400097FB3EF490958095709561957F4F8F4FFE
:100D50009F4F9923A9F0F92F96E9BB279395F69514
:100D6000879577956795B795F111F8CFFAF4BB0F92
:100D700011F460FF1BC06F5F7F4F8F4F9F4F16C0F6
:100D8000882311F096E911C0772321F09EE8872F80
:100D9000762F05C0662371F096E8862F70E060E03C
:100DA0002AF09A95660F771F881FDAF7880F9695B5
:100DB000879597F90895990F0008550FAA0BE0E859
:100DC000FEEF16161706E807F907C0F0121613060D
:100DD000E407F50798F0621B730B840B950B39F44D
:100DE0000A2661F0232B242B252B21F408950A26B3
:100DF00009F4A140A6958FEF811D811D089597F9F3
:100E00009F6780E870E060E008959FEF80EC0895B0
:100E100000240A94161617061806090608950024D9
:100E20000A9412161306140605060895092E039453
:100E3000000C11F4882352F0BB0F40F4BF2B11F4C7
:100E400060FF04C06F5F7F4F8F4F9F4F089557FD26
:100E50009058440F551F59F05F3F71F04795880F28
:100E600097FB991F61F09F3F79F0879508951216BF
:100E700013061406551FF2CF4695F1DF08C016166B
:100E800017061806991FF1CF86957105610508941C
:100E90000895E894BB2766277727CB0197F9089533
:100EA0000E94DB0608F48FEF08950E9468070C94F7
:100EB00016070E94080738F00E940F0720F09523BC
:100EC00011F00C94FF060C94050711240C944A07AA
:100ED0000E94270770F3959FC1F3950F50E0551FAF
:100EE000629FF001729FBB27F00DB11D639FAA277F
:100EF000F00DB11DAA1F649F6627B00DA11D661FCE
:100F0000829F2227B00DA11D621F739FB00DA11DEE
:100F1000621F839FA00D611D221F749F3327A00DA8
:100F2000611D231F849F600D211D822F762F6A2F44
:100F300011249F5750409AF0F1F088234AF0EE0FA9
:100F4000FF1FBB1F661F771F881F91505040A9F7D6
:100F50009E3F510580F00C94FF060C944A075F3FBA
:100F6000E4F3983ED4F3869577956795B795F79512
:100F7000E7959F5FC1F7FE2B880F911D969587958A
:080F800097F90895F894FFCFE2
:00000001FF
